{
  "contractName": "ToDoList",
  "abi": [
    {
      "inputs": [],
      "stateMutability": "nonpayable",
      "type": "constructor"
    },
    {
      "anonymous": false,
      "inputs": [
        {
          "indexed": true,
          "internalType": "address",
          "name": "previousOwner",
          "type": "address"
        },
        {
          "indexed": true,
          "internalType": "address",
          "name": "newOwner",
          "type": "address"
        }
      ],
      "name": "OwnershipTransferred",
      "type": "event"
    },
    {
      "inputs": [],
      "name": "owner",
      "outputs": [
        {
          "internalType": "address",
          "name": "",
          "type": "address"
        }
      ],
      "stateMutability": "view",
      "type": "function",
      "constant": true
    },
    {
      "inputs": [],
      "name": "renounceOwnership",
      "outputs": [],
      "stateMutability": "nonpayable",
      "type": "function"
    },
    {
      "inputs": [
        {
          "internalType": "address",
          "name": "newOwner",
          "type": "address"
        }
      ],
      "name": "transferOwnership",
      "outputs": [],
      "stateMutability": "nonpayable",
      "type": "function"
    },
    {
      "inputs": [
        {
          "internalType": "string",
          "name": "noteString",
          "type": "string"
        }
      ],
      "name": "saveNote",
      "outputs": [],
      "stateMutability": "nonpayable",
      "type": "function"
    },
    {
      "inputs": [],
      "name": "getNote",
      "outputs": [
        {
          "internalType": "string[]",
          "name": "",
          "type": "string[]"
        }
      ],
      "stateMutability": "view",
      "type": "function",
      "constant": true
    },
    {
      "inputs": [],
      "name": "countNote",
      "outputs": [
        {
          "internalType": "uint256",
          "name": "",
          "type": "uint256"
        }
      ],
      "stateMutability": "view",
      "type": "function",
      "constant": true
    },
    {
      "inputs": [],
      "name": "test",
      "outputs": [
        {
          "internalType": "address payable",
          "name": "",
          "type": "address"
        }
      ],
      "stateMutability": "view",
      "type": "function",
      "constant": true
    },
    {
      "inputs": [
        {
          "internalType": "uint256",
          "name": "newLimit",
          "type": "uint256"
        }
      ],
      "name": "changeLimit",
      "outputs": [],
      "stateMutability": "nonpayable",
      "type": "function"
    }
  ],
  "bytecode": "0x608060405234801561001057600080fd5b5060006100216100cc60201b60201c565b9050806000806101000a81548173ffffffffffffffffffffffffffffffffffffffff021916908373ffffffffffffffffffffffffffffffffffffffff1602179055508073ffffffffffffffffffffffffffffffffffffffff16600073ffffffffffffffffffffffffffffffffffffffff167f8be0079c531659141344cd1fd0a4f28419497f9722a3daafe3b4186f6b6457e060405160405180910390a35060056001819055506100d4565b600033905090565b610fa5806100e36000396000f3fe608060405234801561001057600080fd5b50600436106100885760003560e01c8063d22a5f731161005b578063d22a5f73146100ed578063df3ac4761461010b578063f2fde38b14610129578063f8a8fd6d1461014557610088565b80635baca0d61461008d5780636d33b42b146100a9578063715018a6146100c55780638da5cb5b146100cf575b600080fd5b6100a760048036038101906100a29190610a49565b610163565b005b6100c360048036038101906100be9190610a8a565b610328565b005b6100cd6103c8565b005b6100d761051d565b6040516100e49190610cee565b60405180910390f35b6100f5610546565b6040516101029190610dc6565b60405180910390f35b610113610594565b6040516101209190610d24565b60405180910390f35b610143600480360381019061013e9190610a20565b6106c1565b005b61014d610763565b60405161015a9190610d09565b60405180910390f35b6001546101c0600160036000610177610772565b73ffffffffffffffffffffffffffffffffffffffff1673ffffffffffffffffffffffffffffffffffffffff1681526020019081526020016000205461077a90919063ffffffff16565b1115610201576040517f08c379a00000000000000000000000000000000000000000000000000000000081526004016101f890610da6565b60405180910390fd5b61025b600160036000610212610772565b73ffffffffffffffffffffffffffffffffffffffff1673ffffffffffffffffffffffffffffffffffffffff1681526020019081526020016000205461077a90919063ffffffff16565b60036000610267610772565b73ffffffffffffffffffffffffffffffffffffffff1673ffffffffffffffffffffffffffffffffffffffff16815260200190815260200160002081905550600260006102b1610772565b73ffffffffffffffffffffffffffffffffffffffff1673ffffffffffffffffffffffffffffffffffffffff168152602001908152602001600020819080600181540180825580915050600190039060005260206000200160009091909190915090805190602001906103249291906108fd565b5050565b610330610772565b73ffffffffffffffffffffffffffffffffffffffff166000809054906101000a900473ffffffffffffffffffffffffffffffffffffffff1673ffffffffffffffffffffffffffffffffffffffff16146103be576040517f08c379a00000000000000000000000000000000000000000000000000000000081526004016103b590610d86565b60405180910390fd5b8060018190555050565b6103d0610772565b73ffffffffffffffffffffffffffffffffffffffff166000809054906101000a900473ffffffffffffffffffffffffffffffffffffffff1673ffffffffffffffffffffffffffffffffffffffff161461045e576040517f08c379a000000000000000000000000000000000000000000000000000000000815260040161045590610d86565b60405180910390fd5b600073ffffffffffffffffffffffffffffffffffffffff166000809054906101000a900473ffffffffffffffffffffffffffffffffffffffff1673ffffffffffffffffffffffffffffffffffffffff167f8be0079c531659141344cd1fd0a4f28419497f9722a3daafe3b4186f6b6457e060405160405180910390a360008060006101000a81548173ffffffffffffffffffffffffffffffffffffffff021916908373ffffffffffffffffffffffffffffffffffffffff160217905550565b60008060009054906101000a900473ffffffffffffffffffffffffffffffffffffffff16905090565b600060036000610554610772565b73ffffffffffffffffffffffffffffffffffffffff1673ffffffffffffffffffffffffffffffffffffffff16815260200190815260200160002054905090565b6060600260006105a2610772565b73ffffffffffffffffffffffffffffffffffffffff1673ffffffffffffffffffffffffffffffffffffffff168152602001908152602001600020805480602002602001604051908101604052809291908181526020016000905b828210156106b8578382906000526020600020018054600181600116156101000203166002900480601f0160208091040260200160405190810160405280929190818152602001828054600181600116156101000203166002900480156106a45780601f10610679576101008083540402835291602001916106a4565b820191906000526020600020905b81548152906001019060200180831161068757829003601f168201915b5050505050815260200190600101906105fc565b50505050905090565b6106c9610772565b73ffffffffffffffffffffffffffffffffffffffff166000809054906101000a900473ffffffffffffffffffffffffffffffffffffffff1673ffffffffffffffffffffffffffffffffffffffff1614610757576040517f08c379a000000000000000000000000000000000000000000000000000000000815260040161074e90610d86565b60405180910390fd5b610760816107cf565b50565b600061076d610772565b905090565b600033905090565b6000808284019050838110156107c5576040517f08c379a00000000000000000000000000000000000000000000000000000000081526004016107bc90610d66565b60405180910390fd5b8091505092915050565b600073ffffffffffffffffffffffffffffffffffffffff168173ffffffffffffffffffffffffffffffffffffffff16141561083f576040517f08c379a000000000000000000000000000000000000000000000000000000000815260040161083690610d46565b60405180910390fd5b8073ffffffffffffffffffffffffffffffffffffffff166000809054906101000a900473ffffffffffffffffffffffffffffffffffffffff1673ffffffffffffffffffffffffffffffffffffffff167f8be0079c531659141344cd1fd0a4f28419497f9722a3daafe3b4186f6b6457e060405160405180910390a3806000806101000a81548173ffffffffffffffffffffffffffffffffffffffff021916908373ffffffffffffffffffffffffffffffffffffffff16021790555050565b828054600181600116156101000203166002900490600052602060002090601f016020900481019282601f1061093e57805160ff191683800117855561096c565b8280016001018555821561096c579182015b8281111561096b578251825591602001919060010190610950565b5b509050610979919061097d565b5090565b61099f91905b8082111561099b576000816000905550600101610983565b5090565b90565b6000813590506109b181610f41565b92915050565b600082601f8301126109c857600080fd5b81356109db6109d682610e0e565b610de1565b915080825260208301602083018583830111156109f757600080fd5b610a02838284610eee565b50505092915050565b600081359050610a1a81610f58565b92915050565b600060208284031215610a3257600080fd5b6000610a40848285016109a2565b91505092915050565b600060208284031215610a5b57600080fd5b600082013567ffffffffffffffff811115610a7557600080fd5b610a81848285016109b7565b91505092915050565b600060208284031215610a9c57600080fd5b6000610aaa84828501610a0b565b91505092915050565b6000610abf8383610b5a565b905092915050565b610ad081610eb2565b82525050565b610adf81610ea0565b82525050565b6000610af082610e4a565b610afa8185610e6d565b935083602082028501610b0c85610e3a565b8060005b85811015610b485784840389528151610b298582610ab3565b9450610b3483610e60565b925060208a01995050600181019050610b10565b50829750879550505050505092915050565b6000610b6582610e55565b610b6f8185610e7e565b9350610b7f818560208601610efd565b610b8881610f30565b840191505092915050565b6000610ba0602683610e8f565b91507f4f776e61626c653a206e6577206f776e657220697320746865207a65726f206160008301527f64647265737300000000000000000000000000000000000000000000000000006020830152604082019050919050565b6000610c06601b83610e8f565b91507f536166654d6174683a206164646974696f6e206f766572666c6f7700000000006000830152602082019050919050565b6000610c46602083610e8f565b91507f4f776e61626c653a2063616c6c6572206973206e6f7420746865206f776e65726000830152602082019050919050565b6000610c86602683610e8f565b91507f546f446f4c6973743a2045786365656473206c696d6974206e6f74652063616e60008301527f20736176652e00000000000000000000000000000000000000000000000000006020830152604082019050919050565b610ce881610ee4565b82525050565b6000602082019050610d036000830184610ad6565b92915050565b6000602082019050610d1e6000830184610ac7565b92915050565b60006020820190508181036000830152610d3e8184610ae5565b905092915050565b60006020820190508181036000830152610d5f81610b93565b9050919050565b60006020820190508181036000830152610d7f81610bf9565b9050919050565b60006020820190508181036000830152610d9f81610c39565b9050919050565b60006020820190508181036000830152610dbf81610c79565b9050919050565b6000602082019050610ddb6000830184610cdf565b92915050565b6000604051905081810181811067ffffffffffffffff82111715610e0457600080fd5b8060405250919050565b600067ffffffffffffffff821115610e2557600080fd5b601f19601f8301169050602081019050919050565b6000819050602082019050919050565b600081519050919050565b600081519050919050565b6000602082019050919050565b600082825260208201905092915050565b600082825260208201905092915050565b600082825260208201905092915050565b6000610eab82610ec4565b9050919050565b6000610ebd82610ec4565b9050919050565b600073ffffffffffffffffffffffffffffffffffffffff82169050919050565b6000819050919050565b82818337600083830152505050565b60005b83811015610f1b578082015181840152602081019050610f00565b83811115610f2a576000848401525b50505050565b6000601f19601f8301169050919050565b610f4a81610ea0565b8114610f5557600080fd5b50565b610f6181610ee4565b8114610f6c57600080fd5b5056fea264697066735822122069a1322e56acb0a8a7721b0cc2e8b61daf56b9f14db9544eefc0e433bc0d2c4864736f6c63430006080033",
  "immutableReferences": {},
  "source": "// SPDX-License-Identifier: UNLICENSED\npragma solidity >=0.4.0;\npragma experimental ABIEncoderV2;\n\nimport \"./utils/Ownable.sol\";\nimport \"./utils/SafeMath.sol\";\n\ncontract ToDoList is Ownable {\n\n    using SafeMath for uint256;\n\n    uint256 limitNote;\n    mapping(address => string[]) noteStorage;\n    mapping(address => uint256) countNoteAddress;\n\n    constructor () public {\n        limitNote = 5;\n    }\n\n    function saveNote(string memory noteString) public {\n        require(countNoteAddress[_msgSender()].add(1) <= limitNote, \"ToDoList: Exceeds limit note can save.\");\n        countNoteAddress[_msgSender()] = countNoteAddress[_msgSender()].add(1);\n        noteStorage[_msgSender()].push(noteString);\n    }\n\n    function getNote() public view returns( string[] memory ) {\n        return noteStorage[_msgSender()];\n    }\n\n    function countNote() public view returns(uint256) {\n        return countNoteAddress[_msgSender()];\n    }\n\n    function test() public view returns(address payable) {\n        return _msgSender();\n    }\n\n    function changeLimit(uint256 newLimit) public onlyOwner {\n        limitNote = newLimit;\n    }\n    \n}",
  "sourcePath": "/Users/vuquocbinh/Desktop/Code/node/blockchain/ToDoList/contracts/ToDoList.sol",
  "compiler": {
    "name": "solc",
    "version": "0.6.8+commit.0bbfe453.Emscripten.clang"
  },
  "schemaVersion": "3.4.3",
  "updatedAt": "2021-12-16T07:11:21.922Z",
  "networkType": "ethereum",
  "devdoc": {
    "methods": {
      "owner()": {
        "details": "Returns the address of the current owner."
      },
      "renounceOwnership()": {
        "details": "Leaves the contract without owner. It will not be possible to call `onlyOwner` functions anymore. Can only be called by the current owner.     * NOTE: Renouncing ownership will leave the contract without an owner, thereby removing any functionality that is only available to the owner."
      },
      "transferOwnership(address)": {
        "details": "Transfers ownership of the contract to a new account (`newOwner`). Can only be called by the current owner."
      }
    }
  },
  "userdoc": {
    "methods": {}
  }
}